{
  "_format": "hh-sol-artifact-1",
  "contractName": "FabricaJogo",
  "sourceName": "contracts/FabricaJogo.sol",
  "abi": [
    {
      "inputs": [],
      "stateMutability": "nonpayable",
      "type": "constructor"
    },
    {
      "anonymous": false,
      "inputs": [],
      "name": "atualizacaoRanking",
      "type": "event"
    },
    {
      "anonymous": false,
      "inputs": [
        {
          "indexed": false,
          "internalType": "address",
          "name": "endereco",
          "type": "address"
        },
        {
          "indexed": false,
          "internalType": "uint256",
          "name": "novoSaldo",
          "type": "uint256"
        }
      ],
      "name": "atualizacaoSaldo",
      "type": "event"
    },
    {
      "anonymous": false,
      "inputs": [
        {
          "components": [
            {
              "internalType": "string",
              "name": "id",
              "type": "string"
            },
            {
              "internalType": "address",
              "name": "dono",
              "type": "address"
            },
            {
              "internalType": "address",
              "name": "jogador",
              "type": "address"
            },
            {
              "internalType": "string",
              "name": "tema",
              "type": "string"
            },
            {
              "internalType": "string",
              "name": "palavraSecreta",
              "type": "string"
            },
            {
              "internalType": "enum LibForca.Status",
              "name": "status",
              "type": "uint8"
            }
          ],
          "indexed": false,
          "internalType": "struct LibForca.Forca",
          "name": "novaForca",
          "type": "tuple"
        }
      ],
      "name": "criacaoForca",
      "type": "event"
    },
    {
      "anonymous": false,
      "inputs": [
        {
          "indexed": false,
          "internalType": "string",
          "name": "idForcaIniciada",
          "type": "string"
        }
      ],
      "name": "iniciacaoForca",
      "type": "event"
    },
    {
      "inputs": [
        {
          "internalType": "address",
          "name": "endereco",
          "type": "address"
        }
      ],
      "name": "balanceOf",
      "outputs": [
        {
          "internalType": "uint256",
          "name": "",
          "type": "uint256"
        }
      ],
      "stateMutability": "view",
      "type": "function"
    },
    {
      "inputs": [
        {
          "internalType": "string",
          "name": "id",
          "type": "string"
        },
        {
          "internalType": "address",
          "name": "dono",
          "type": "address"
        },
        {
          "internalType": "string",
          "name": "tema",
          "type": "string"
        },
        {
          "internalType": "string",
          "name": "palavraSecreta",
          "type": "string"
        }
      ],
      "name": "criaJogo",
      "outputs": [],
      "stateMutability": "nonpayable",
      "type": "function"
    },
    {
      "inputs": [
        {
          "internalType": "string",
          "name": "id",
          "type": "string"
        },
        {
          "internalType": "bool",
          "name": "vitoria",
          "type": "bool"
        },
        {
          "internalType": "uint256",
          "name": "recompensaCriador",
          "type": "uint256"
        }
      ],
      "name": "finalizaForca",
      "outputs": [],
      "stateMutability": "nonpayable",
      "type": "function"
    },
    {
      "inputs": [],
      "name": "getForcas",
      "outputs": [
        {
          "components": [
            {
              "internalType": "string",
              "name": "id",
              "type": "string"
            },
            {
              "internalType": "address",
              "name": "dono",
              "type": "address"
            },
            {
              "internalType": "address",
              "name": "jogador",
              "type": "address"
            },
            {
              "internalType": "string",
              "name": "tema",
              "type": "string"
            },
            {
              "internalType": "string",
              "name": "palavraSecreta",
              "type": "string"
            },
            {
              "internalType": "enum LibForca.Status",
              "name": "status",
              "type": "uint8"
            }
          ],
          "internalType": "struct LibForca.Forca[]",
          "name": "",
          "type": "tuple[]"
        }
      ],
      "stateMutability": "view",
      "type": "function"
    },
    {
      "inputs": [
        {
          "internalType": "string",
          "name": "id",
          "type": "string"
        }
      ],
      "name": "getJogoPorId",
      "outputs": [
        {
          "internalType": "contract Jogo",
          "name": "",
          "type": "address"
        }
      ],
      "stateMutability": "view",
      "type": "function"
    },
    {
      "inputs": [],
      "name": "getUsuarios",
      "outputs": [
        {
          "internalType": "address[]",
          "name": "",
          "type": "address[]"
        }
      ],
      "stateMutability": "view",
      "type": "function"
    },
    {
      "inputs": [
        {
          "internalType": "string",
          "name": "id",
          "type": "string"
        },
        {
          "internalType": "address",
          "name": "jogador",
          "type": "address"
        }
      ],
      "name": "iniciaForca",
      "outputs": [],
      "stateMutability": "nonpayable",
      "type": "function"
    },
    {
      "inputs": [
        {
          "internalType": "uint256",
          "name": "",
          "type": "uint256"
        }
      ],
      "name": "jogos",
      "outputs": [
        {
          "internalType": "contract Jogo",
          "name": "",
          "type": "address"
        }
      ],
      "stateMutability": "view",
      "type": "function"
    },
    {
      "inputs": [
        {
          "internalType": "address",
          "name": "endereco",
          "type": "address"
        }
      ],
      "name": "saqueInicial",
      "outputs": [],
      "stateMutability": "nonpayable",
      "type": "function"
    }
  ],
  "bytecode": "0x608060405234801561001057600080fd5b5060405161001d9061007e565b604051809103906000f080158015610039573d6000803e3d6000fd5b506000806101000a81548173ffffffffffffffffffffffffffffffffffffffff021916908373ffffffffffffffffffffffffffffffffffffffff16021790555061008c565b611e77806200343f83390190565b6133a3806200009c6000396000f3fe60806040523480156200001157600080fd5b5060043610620000a05760003560e01c80639aadacb3116200006f5780639aadacb31462000169578063a333a1a01462000189578063b1e00b5314620001ab578063be057fcc14620001cb578063d1c2714214620001eb57620000a0565b80634f38c2f314620000a557806370a0823114620000db57806383d986151462000111578063961b69171462000133575b600080fd5b620000c36004803603810190620000bd9190620015bc565b6200020b565b604051620000d2919062001c0f565b60405180910390f35b620000f96004803603810190620000f391906200154b565b620003f6565b60405162000108919062001cf8565b60405180910390f35b6200011b620004af565b6040516200012a919062001bc7565b60405180910390f35b6200015160048036038101906200014b9190620017c6565b6200055d565b60405162000160919062001c0f565b60405180910390f35b6200018760048036038101906200018191906200154b565b6200059d565b005b62000193620006be565b604051620001a2919062001beb565b60405180910390f35b620001c96004803603810190620001c3919062001601565b620008a4565b005b620001e96004803603810190620001e3919062001712565b62000b14565b005b6200020960048036038101906200020391906200165b565b62000e4c565b005b600080600090505b600180549050811015620003b3576000600182815481106200025e577f4e487b7100000000000000000000000000000000000000000000000000000000600052603260045260246000fd5b9060005260206000200160009054906101000a900473ffffffffffffffffffffffffffffffffffffffff1673ffffffffffffffffffffffffffffffffffffffff166390d153416040518163ffffffff1660e01b815260040160006040518083038186803b158015620002cf57600080fd5b505afa158015620002e4573d6000803e3d6000fd5b505050506040513d6000823e3d601f19601f820116820180604052508101906200030f919062001781565b9050838051906020012081600001518051906020012014156200039c576001828154811062000367577f4e487b7100000000000000000000000000000000000000000000000000000000600052603260045260246000fd5b9060005260206000200160009054906101000a900473ffffffffffffffffffffffffffffffffffffffff1692505050620003f1565b508080620003aa9062001f58565b91505062000213565b506040517f08c379a0000000000000000000000000000000000000000000000000000000008152600401620003e89062001cb2565b60405180910390fd5b919050565b60008060009054906101000a900473ffffffffffffffffffffffffffffffffffffffff1673ffffffffffffffffffffffffffffffffffffffff166370a08231836040518263ffffffff1660e01b815260040162000454919062001b7d565b60206040518083038186803b1580156200046d57600080fd5b505afa15801562000482573d6000803e3d6000fd5b505050506040513d601f19601f82011682018060405250810190620004a89190620017f2565b9050919050565b606060008054906101000a900473ffffffffffffffffffffffffffffffffffffffff1673ffffffffffffffffffffffffffffffffffffffff166383d986156040518163ffffffff1660e01b815260040160006040518083038186803b1580156200051857600080fd5b505afa1580156200052d573d6000803e3d6000fd5b505050506040513d6000823e3d601f19601f8201168201806040525081019062000558919062001577565b905090565b600181815481106200056e57600080fd5b906000526020600020016000915054906101000a900473ffffffffffffffffffffffffffffffffffffffff1681565b60008060009054906101000a900473ffffffffffffffffffffffffffffffffffffffff1673ffffffffffffffffffffffffffffffffffffffff16639aadacb3836040518263ffffffff1660e01b8152600401620005fb919062001b7d565b602060405180830381600087803b1580156200061657600080fd5b505af11580156200062b573d6000803e3d6000fd5b505050506040513d601f19601f82011682018060405250810190620006519190620017f2565b90507fcf6de6d713eb842b11567fa10bbf88977596e146a33c596218225920507e202d82826040516200068692919062001b9a565b60405180910390a17f6893430c8082bad6d774898a3e71961d62f90d02082d479e882b6cee6db5a44c60405160405180910390a15050565b6060600060018054905067ffffffffffffffff81111562000708577f4e487b7100000000000000000000000000000000000000000000000000000000600052604160045260246000fd5b6040519080825280602002602001820160405280156200074557816020015b620007316200119c565b815260200190600190039081620007275790505b50905060005b81518110156200089c576001818154811062000790577f4e487b7100000000000000000000000000000000000000000000000000000000600052603260045260246000fd5b9060005260206000200160009054906101000a900473ffffffffffffffffffffffffffffffffffffffff1673ffffffffffffffffffffffffffffffffffffffff166390d153416040518163ffffffff1660e01b815260040160006040518083038186803b1580156200080157600080fd5b505afa15801562000816573d6000803e3d6000fd5b505050506040513d6000823e3d601f19601f8201168201806040525081019062000841919062001781565b8282815181106200087b577f4e487b7100000000000000000000000000000000000000000000000000000000600052603260045260246000fd5b60200260200101819052508080620008939062001f58565b9150506200074b565b508091505090565b6000620008b1836200020b565b90508073ffffffffffffffffffffffffffffffffffffffff1663d19a0fdb836040518263ffffffff1660e01b8152600401620008ee919062001b7d565b600060405180830381600087803b1580156200090957600080fd5b505af11580156200091e573d6000803e3d6000fd5b5050505060008060009054906101000a900473ffffffffffffffffffffffffffffffffffffffff1673ffffffffffffffffffffffffffffffffffffffff16633f745929846040518263ffffffff1660e01b815260040162000980919062001b7d565b602060405180830381600087803b1580156200099b57600080fd5b505af1158015620009b0573d6000803e3d6000fd5b505050506040513d601f19601f82011682018060405250810190620009d69190620017f2565b905060008273ffffffffffffffffffffffffffffffffffffffff166390d153416040518163ffffffff1660e01b815260040160006040518083038186803b15801562000a2157600080fd5b505afa15801562000a36573d6000803e3d6000fd5b505050506040513d6000823e3d601f19601f8201168201806040525081019062000a61919062001781565b90506000816000015190507fcf6de6d713eb842b11567fa10bbf88977596e146a33c596218225920507e202d858460405162000a9f92919062001b9a565b60405180910390a17f086902a559439be5505d59ff747e80e2cd96610ec659847d1da52d20982a9e6d8160405162000ad8919062001c2c565b60405180910390a17f6893430c8082bad6d774898a3e71961d62f90d02082d479e882b6cee6db5a44c60405160405180910390a1505050505050565b600062000b21846200020b565b90508073ffffffffffffffffffffffffffffffffffffffff16639eccd5be6040518163ffffffff1660e01b8152600401600060405180830381600087803b15801562000b6c57600080fd5b505af115801562000b81573d6000803e3d6000fd5b50505050821562000e465760008173ffffffffffffffffffffffffffffffffffffffff166390d153416040518163ffffffff1660e01b815260040160006040518083038186803b15801562000bd557600080fd5b505afa15801562000bea573d6000803e3d6000fd5b505050506040513d6000823e3d601f19601f8201168201806040525081019062000c15919062001781565b905062000c2283620010d6565b60008060009054906101000a900473ffffffffffffffffffffffffffffffffffffffff1673ffffffffffffffffffffffffffffffffffffffff1663e0a20e6f8360200151866040518363ffffffff1660e01b815260040162000c8692919062001b9a565b602060405180830381600087803b15801562000ca157600080fd5b505af115801562000cb6573d6000803e3d6000fd5b505050506040513d601f19601f8201168201806040525081019062000cdc9190620017f2565b905060008060009054906101000a900473ffffffffffffffffffffffffffffffffffffffff1673ffffffffffffffffffffffffffffffffffffffff16637e183a3884604001516040518263ffffffff1660e01b815260040162000d40919062001b7d565b602060405180830381600087803b15801562000d5b57600080fd5b505af115801562000d70573d6000803e3d6000fd5b505050506040513d601f19601f8201168201806040525081019062000d969190620017f2565b90507fcf6de6d713eb842b11567fa10bbf88977596e146a33c596218225920507e202d83602001518360405162000dcf92919062001b9a565b60405180910390a17fcf6de6d713eb842b11567fa10bbf88977596e146a33c596218225920507e202d83604001518260405162000e0e92919062001b9a565b60405180910390a17f6893430c8082bad6d774898a3e71961d62f90d02082d479e882b6cee6db5a44c60405160405180910390a15050505b50505050565b60008060009054906101000a900473ffffffffffffffffffffffffffffffffffffffff1673ffffffffffffffffffffffffffffffffffffffff1663a8448d92856040518263ffffffff1660e01b815260040162000eaa919062001b7d565b602060405180830381600087803b15801562000ec557600080fd5b505af115801562000eda573d6000803e3d6000fd5b505050506040513d601f19601f8201168201806040525081019062000f009190620017f2565b905060008585858560405162000f169062001237565b62000f25949392919062001c50565b604051809103906000f08015801562000f42573d6000803e3d6000fd5b5090506001819080600181540180825580915050600190039060005260206000200160009091909190916101000a81548173ffffffffffffffffffffffffffffffffffffffff021916908373ffffffffffffffffffffffffffffffffffffffff1602179055507fcf6de6d713eb842b11567fa10bbf88977596e146a33c596218225920507e202d858360405162000fdb92919062001b9a565b60405180910390a17f997ac55160b8292560249d9924b855dc741f247261b54067ecb0f7b09d87b6dc8173ffffffffffffffffffffffffffffffffffffffff166390d153416040518163ffffffff1660e01b815260040160006040518083038186803b1580156200104b57600080fd5b505afa15801562001060573d6000803e3d6000fd5b505050506040513d6000823e3d601f19601f820116820180604052508101906200108b919062001781565b6040516200109a919062001cd4565b60405180910390a17f6893430c8082bad6d774898a3e71961d62f90d02082d479e882b6cee6db5a44c60405160405180910390a1505050505050565b6200117081604051602401620010ed919062001cf8565b6040516020818303038152906040527ff82c50f1000000000000000000000000000000000000000000000000000000007bffffffffffffffffffffffffffffffffffffffffffffffffffffffff19166020820180517bffffffffffffffffffffffffffffffffffffffffffffffffffffffff838183161783525050505062001173565b50565b60008151905060006a636f6e736f6c652e6c6f679050602083016000808483855afa5050505050565b6040518060c0016040528060608152602001600073ffffffffffffffffffffffffffffffffffffffff168152602001600073ffffffffffffffffffffffffffffffffffffffff16815260200160608152602001606081526020016000600281111562001231577f4e487b7100000000000000000000000000000000000000000000000000000000600052602160045260246000fd5b81525090565b61128a80620020e483390190565b60006200125c620012568462001d3e565b62001d15565b905080838252602082019050828560208602820111156200127c57600080fd5b60005b85811015620012b057816200129588826200135b565b8452602084019350602083019250506001810190506200127f565b5050509392505050565b6000620012d1620012cb8462001d6d565b62001d15565b905082815260208101848484011115620012ea57600080fd5b620012f784828562001edd565b509392505050565b600062001316620013108462001d6d565b62001d15565b9050828152602081018484840111156200132f57600080fd5b6200133c84828562001eec565b509392505050565b600081359050620013558162002084565b92915050565b6000815190506200136c8162002084565b92915050565b600082601f8301126200138457600080fd5b81516200139684826020860162001245565b91505092915050565b600081359050620013b0816200209e565b92915050565b600081519050620013c781620020b8565b92915050565b600082601f830112620013df57600080fd5b8135620013f1848260208601620012ba565b91505092915050565b600082601f8301126200140c57600080fd5b81516200141e848260208601620012ff565b91505092915050565b600060c082840312156200143a57600080fd5b6200144660c062001d15565b9050600082015167ffffffffffffffff8111156200146357600080fd5b6200147184828501620013fa565b600083015250602062001487848285016200135b565b60208301525060406200149d848285016200135b565b604083015250606082015167ffffffffffffffff811115620014be57600080fd5b620014cc84828501620013fa565b606083015250608082015167ffffffffffffffff811115620014ed57600080fd5b620014fb84828501620013fa565b60808301525060a06200151184828501620013b6565b60a08301525092915050565b6000813590506200152e81620020c9565b92915050565b6000815190506200154581620020c9565b92915050565b6000602082840312156200155e57600080fd5b60006200156e8482850162001344565b91505092915050565b6000602082840312156200158a57600080fd5b600082015167ffffffffffffffff811115620015a557600080fd5b620015b38482850162001372565b91505092915050565b600060208284031215620015cf57600080fd5b600082013567ffffffffffffffff811115620015ea57600080fd5b620015f884828501620013cd565b91505092915050565b600080604083850312156200161557600080fd5b600083013567ffffffffffffffff8111156200163057600080fd5b6200163e85828601620013cd565b9250506020620016518582860162001344565b9150509250929050565b600080600080608085870312156200167257600080fd5b600085013567ffffffffffffffff8111156200168d57600080fd5b6200169b87828801620013cd565b9450506020620016ae8782880162001344565b935050604085013567ffffffffffffffff811115620016cc57600080fd5b620016da87828801620013cd565b925050606085013567ffffffffffffffff811115620016f857600080fd5b6200170687828801620013cd565b91505092959194509250565b6000806000606084860312156200172857600080fd5b600084013567ffffffffffffffff8111156200174357600080fd5b6200175186828701620013cd565b935050602062001764868287016200139f565b925050604062001777868287016200151d565b9150509250925092565b6000602082840312156200179457600080fd5b600082015167ffffffffffffffff811115620017af57600080fd5b620017bd8482850162001427565b91505092915050565b600060208284031215620017d957600080fd5b6000620017e9848285016200151d565b91505092915050565b6000602082840312156200180557600080fd5b6000620018158482850162001534565b91505092915050565b60006200182c83836200184e565b60208301905092915050565b600062001846838362001a26565b905092915050565b620018598162001e42565b82525050565b6200186a8162001e42565b82525050565b60006200187d8262001dc3565b62001889818562001dfe565b9350620018968362001da3565b8060005b83811015620018cd578151620018b188826200181e565b9750620018be8362001de4565b9250506001810190506200189a565b5085935050505092915050565b6000620018e78262001dce565b620018f3818562001e0f565b935083602082028501620019078562001db3565b8060005b8581101562001949578484038952815162001927858262001838565b9450620019348362001df1565b925060208a019950506001810190506200190b565b50829750879550505050505092915050565b620019668162001ea1565b82525050565b620019778162001ec9565b82525050565b60006200198a8262001dd9565b62001996818562001e20565b9350620019a881856020860162001eec565b620019b38162002033565b840191505092915050565b6000620019cb8262001dd9565b620019d7818562001e31565b9350620019e981856020860162001eec565b620019f48162002033565b840191505092915050565b600062001a0e60138362001e31565b915062001a1b8262002044565b602082019050919050565b600060c083016000830151848203600086015262001a4582826200197d565b915050602083015162001a5c60208601826200184e565b50604083015162001a7160408601826200184e565b506060830151848203606086015262001a8b82826200197d565b9150506080830151848203608086015262001aa782826200197d565b91505060a083015162001abe60a08601826200196c565b508091505092915050565b600060c083016000830151848203600086015262001ae882826200197d565b915050602083015162001aff60208601826200184e565b50604083015162001b1460408601826200184e565b506060830151848203606086015262001b2e82826200197d565b9150506080830151848203608086015262001b4a82826200197d565b91505060a083015162001b6160a08601826200196c565b508091505092915050565b62001b778162001e97565b82525050565b600060208201905062001b9460008301846200185f565b92915050565b600060408201905062001bb160008301856200185f565b62001bc0602083018462001b6c565b9392505050565b6000602082019050818103600083015262001be3818462001870565b905092915050565b6000602082019050818103600083015262001c078184620018da565b905092915050565b600060208201905062001c2660008301846200195b565b92915050565b6000602082019050818103600083015262001c488184620019be565b905092915050565b6000608082019050818103600083015262001c6c8187620019be565b905062001c7d60208301866200185f565b818103604083015262001c918185620019be565b9050818103606083015262001ca78184620019be565b905095945050505050565b6000602082019050818103600083015262001ccd81620019ff565b9050919050565b6000602082019050818103600083015262001cf0818462001ac9565b905092915050565b600060208201905062001d0f600083018462001b6c565b92915050565b600062001d2162001d34565b905062001d2f828262001f22565b919050565b6000604051905090565b600067ffffffffffffffff82111562001d5c5762001d5b62002004565b5b602082029050602081019050919050565b600067ffffffffffffffff82111562001d8b5762001d8a62002004565b5b62001d968262002033565b9050602081019050919050565b6000819050602082019050919050565b6000819050602082019050919050565b600081519050919050565b600081519050919050565b600081519050919050565b6000602082019050919050565b6000602082019050919050565b600082825260208201905092915050565b600082825260208201905092915050565b600082825260208201905092915050565b600082825260208201905092915050565b600062001e4f8262001e77565b9050919050565b60008115159050919050565b600081905062001e72826200206d565b919050565b600073ffffffffffffffffffffffffffffffffffffffff82169050919050565b6000819050919050565b600062001eae8262001eb5565b9050919050565b600062001ec28262001e77565b9050919050565b600062001ed68262001e62565b9050919050565b82818337600083830152505050565b60005b8381101562001f0c57808201518184015260208101905062001eef565b8381111562001f1c576000848401525b50505050565b62001f2d8262002033565b810181811067ffffffffffffffff8211171562001f4f5762001f4e62002004565b5b80604052505050565b600062001f658262001e97565b91507fffffffffffffffffffffffffffffffffffffffffffffffffffffffffffffffff82141562001f9b5762001f9a62001fa6565b5b600182019050919050565b7f4e487b7100000000000000000000000000000000000000000000000000000000600052601160045260246000fd5b7f4e487b7100000000000000000000000000000000000000000000000000000000600052602160045260246000fd5b7f4e487b7100000000000000000000000000000000000000000000000000000000600052604160045260246000fd5b6000601f19601f8301169050919050565b7f4a6f676f206e616f20656e636f6e747261646f00000000000000000000000000600082015250565b6003811062002081576200208062001fd5565b5b50565b6200208f8162001e42565b81146200209b57600080fd5b50565b620020a98162001e56565b8114620020b557600080fd5b50565b60038110620020c657600080fd5b50565b620020d48162001e97565b8114620020e057600080fd5b5056fe60806040523480156200001157600080fd5b506040516200128a3803806200128a833981810160405281019062000037919062000395565b336000806101000a81548173ffffffffffffffffffffffffffffffffffffffff021916908373ffffffffffffffffffffffffffffffffffffffff1602179055506040518060c001604052808581526020018473ffffffffffffffffffffffffffffffffffffffff168152602001600073ffffffffffffffffffffffffffffffffffffffff1681526020018381526020018281526020016000600281111562000108577f4e487b7100000000000000000000000000000000000000000000000000000000600052602160045260246000fd5b815250600160008201518160000190805190602001906200012b9291906200025c565b5060208201518160010160006101000a81548173ffffffffffffffffffffffffffffffffffffffff021916908373ffffffffffffffffffffffffffffffffffffffff16021790555060408201518160020160006101000a81548173ffffffffffffffffffffffffffffffffffffffff021916908373ffffffffffffffffffffffffffffffffffffffff1602179055506060820151816003019080519060200190620001d89291906200025c565b506080820151816004019080519060200190620001f79291906200025c565b5060a08201518160050160006101000a81548160ff021916908360028111156200024a577f4e487b7100000000000000000000000000000000000000000000000000000000600052602160045260246000fd5b0217905550905050505050506200060a565b8280546200026a9062000515565b90600052602060002090601f0160209004810192826200028e5760008555620002da565b82601f10620002a957805160ff1916838001178555620002da565b82800160010185558215620002da579182015b82811115620002d9578251825591602001919060010190620002bc565b5b509050620002e99190620002ed565b5090565b5b8082111562000308576000816000905550600101620002ee565b5090565b6000620003236200031d8462000475565b6200044c565b9050828152602081018484840111156200033c57600080fd5b62000349848285620004df565b509392505050565b6000815190506200036281620005f0565b92915050565b600082601f8301126200037a57600080fd5b81516200038c8482602086016200030c565b91505092915050565b60008060008060808587031215620003ac57600080fd5b600085015167ffffffffffffffff811115620003c757600080fd5b620003d58782880162000368565b9450506020620003e88782880162000351565b935050604085015167ffffffffffffffff8111156200040657600080fd5b620004148782880162000368565b925050606085015167ffffffffffffffff8111156200043257600080fd5b620004408782880162000368565b91505092959194509250565b6000620004586200046b565b90506200046682826200054b565b919050565b6000604051905090565b600067ffffffffffffffff821115620004935762000492620005b0565b5b6200049e82620005df565b9050602081019050919050565b6000620004b882620004bf565b9050919050565b600073ffffffffffffffffffffffffffffffffffffffff82169050919050565b60005b83811015620004ff578082015181840152602081019050620004e2565b838111156200050f576000848401525b50505050565b600060028204905060018216806200052e57607f821691505b6020821081141562000545576200054462000581565b5b50919050565b6200055682620005df565b810181811067ffffffffffffffff82111715620005785762000577620005b0565b5b80604052505050565b7f4e487b7100000000000000000000000000000000000000000000000000000000600052602260045260246000fd5b7f4e487b7100000000000000000000000000000000000000000000000000000000600052604160045260246000fd5b6000601f19601f8301169050919050565b620005fb81620004ab565b81146200060757600080fd5b50565b610c70806200061a6000396000f3fe608060405234801561001057600080fd5b50600436106100415760003560e01c806390d15341146100465780639eccd5be14610064578063d19a0fdb1461006e575b600080fd5b61004e61008a565b60405161005b9190610982565b60405180910390f35b61006c61038d565b005b610088600480360381019061008391906107a2565b610471565b005b6100926106f3565b60016040518060c00160405290816000820180546100af90610a5b565b80601f01602080910402602001604051908101604052809291908181526020018280546100db90610a5b565b80156101285780601f106100fd57610100808354040283529160200191610128565b820191906000526020600020905b81548152906001019060200180831161010b57829003601f168201915b505050505081526020016001820160009054906101000a900473ffffffffffffffffffffffffffffffffffffffff1673ffffffffffffffffffffffffffffffffffffffff1673ffffffffffffffffffffffffffffffffffffffff1681526020016002820160009054906101000a900473ffffffffffffffffffffffffffffffffffffffff1673ffffffffffffffffffffffffffffffffffffffff1673ffffffffffffffffffffffffffffffffffffffff1681526020016003820180546101ed90610a5b565b80601f016020809104026020016040519081016040528092919081815260200182805461021990610a5b565b80156102665780601f1061023b57610100808354040283529160200191610266565b820191906000526020600020905b81548152906001019060200180831161024957829003601f168201915b5050505050815260200160048201805461027f90610a5b565b80601f01602080910402602001604051908101604052809291908181526020018280546102ab90610a5b565b80156102f85780601f106102cd576101008083540402835291602001916102f8565b820191906000526020600020905b8154815290600101906020018083116102db57829003601f168201915b505050505081526020016005820160009054906101000a900460ff16600281111561034c577f4e487b7100000000000000000000000000000000000000000000000000000000600052602160045260246000fd5b6002811115610384577f4e487b7100000000000000000000000000000000000000000000000000000000600052602160045260246000fd5b81525050905090565b60008054906101000a900473ffffffffffffffffffffffffffffffffffffffff1673ffffffffffffffffffffffffffffffffffffffff163373ffffffffffffffffffffffffffffffffffffffff161461041b576040517f08c379a000000000000000000000000000000000000000000000000000000000815260040161041290610942565b60405180910390fd5b6002600160050160006101000a81548160ff0219169083600281111561046a577f4e487b7100000000000000000000000000000000000000000000000000000000600052602160045260246000fd5b0217905550565b60008054906101000a900473ffffffffffffffffffffffffffffffffffffffff1673ffffffffffffffffffffffffffffffffffffffff163373ffffffffffffffffffffffffffffffffffffffff16146104ff576040517f08c379a00000000000000000000000000000000000000000000000000000000081526004016104f690610942565b60405180910390fd5b808073ffffffffffffffffffffffffffffffffffffffff166001800160009054906101000a900473ffffffffffffffffffffffffffffffffffffffff1673ffffffffffffffffffffffffffffffffffffffff161415610593576040517f08c379a000000000000000000000000000000000000000000000000000000000815260040161058a90610922565b60405180910390fd5b600060028111156105cd577f4e487b7100000000000000000000000000000000000000000000000000000000600052602160045260246000fd5b600160050160009054906101000a900460ff166002811115610618577f4e487b7100000000000000000000000000000000000000000000000000000000600052602160045260246000fd5b14610658576040517f08c379a000000000000000000000000000000000000000000000000000000000815260040161064f90610962565b60405180910390fd5b81600160020160006101000a81548173ffffffffffffffffffffffffffffffffffffffff021916908373ffffffffffffffffffffffffffffffffffffffff16021790555060018060050160006101000a81548160ff021916908360028111156106ea577f4e487b7100000000000000000000000000000000000000000000000000000000600052602160045260246000fd5b02179055505050565b6040518060c0016040528060608152602001600073ffffffffffffffffffffffffffffffffffffffff168152602001600073ffffffffffffffffffffffffffffffffffffffff168152602001606081526020016060815260200160006002811115610787577f4e487b7100000000000000000000000000000000000000000000000000000000600052602160045260246000fd5b81525090565b60008135905061079c81610c23565b92915050565b6000602082840312156107b457600080fd5b60006107c28482850161078d565b91505092915050565b6107d4816109d1565b82525050565b6107e381610a16565b82525050565b60006107f4826109a4565b6107fe81856109af565b935061080e818560208601610a28565b61081781610aeb565b840191505092915050565b600061082f6027836109c0565b915061083a82610afc565b604082019050919050565b6000610852601f836109c0565b915061085d82610b4b565b602082019050919050565b6000610875606b836109c0565b915061088082610b74565b608082019050919050565b600060c08301600083015184820360008601526108a882826107e9565b91505060208301516108bd60208601826107cb565b5060408301516108d060408601826107cb565b50606083015184820360608601526108e882826107e9565b9150506080830151848203608086015261090282826107e9565b91505060a083015161091760a08601826107da565b508091505092915050565b6000602082019050818103600083015261093b81610822565b9050919050565b6000602082019050818103600083015261095b81610845565b9050919050565b6000602082019050818103600083015261097b81610868565b9050919050565b6000602082019050818103600083015261099c818461088b565b905092915050565b600081519050919050565b600082825260208201905092915050565b600082825260208201905092915050565b60006109dc826109f6565b9050919050565b60008190506109f182610c0f565b919050565b600073ffffffffffffffffffffffffffffffffffffffff82169050919050565b6000610a21826109e3565b9050919050565b60005b83811015610a46578082015181840152602081019050610a2b565b83811115610a55576000848401525b50505050565b60006002820490506001821680610a7357607f821691505b60208210811415610a8757610a86610abc565b5b50919050565b7f4e487b7100000000000000000000000000000000000000000000000000000000600052602160045260246000fd5b7f4e487b7100000000000000000000000000000000000000000000000000000000600052602260045260246000fd5b6000601f19601f8301169050919050565b7f566f6365206e616f20706f6465206a6f6761722061207375612070726f70726960008201527f6120666f72636100000000000000000000000000000000000000000000000000602082015250565b7f566f63652070726563697361207574696c697a61722061206661627269636100600082015250565b7f4e616f206520706f73736976656c20696e696369617220756d6120666f72636160008201527f20717565206e616f20657374656a61206162657274612e2e2e20506f7220666160208201527f766f722c20617475616c697a652061206c6973746120646520666f726361732060408201527f646973706f6e6976656973000000000000000000000000000000000000000000606082015250565b60038110610c2057610c1f610a8d565b5b50565b610c2c816109d1565b8114610c3757600080fd5b5056fea2646970667358221220dccef1ecdaad24edabedc273057718a2b90d28143c870cdcdf31ee58d04f6aeb64736f6c63430008040033a264697066735822122036afd84fbd9de2e28cc796d7b9a09b88b8aa12dccfefce0f0d053a1c4560d6d064736f6c6343000804003360806040523480156200001157600080fd5b506040518060400160405280600981526020017f466f726361436f696e00000000000000000000000000000000000000000000008152506040518060400160405280600281526020017f4643000000000000000000000000000000000000000000000000000000000000815250816003908051906020019062000096929190620000b8565b508060049080519060200190620000af929190620000b8565b505050620001cd565b828054620000c69062000168565b90600052602060002090601f016020900481019282620000ea576000855562000136565b82601f106200010557805160ff191683800117855562000136565b8280016001018555821562000136579182015b828111156200013557825182559160200191906001019062000118565b5b50905062000145919062000149565b5090565b5b80821115620001645760008160009055506001016200014a565b5090565b600060028204905060018216806200018157607f821691505b602082108114156200019857620001976200019e565b5b50919050565b7f4e487b7100000000000000000000000000000000000000000000000000000000600052602260045260246000fd5b611c9a80620001dd6000396000f3fe608060405234801561001057600080fd5b506004361061010b5760003560e01c80637e183a38116100a2578063a457c2d711610071578063a457c2d7146102f6578063a8448d9214610326578063a9059cbb14610356578063dd62ed3e14610386578063e0a20e6f146103b65761010b565b80637e183a381461025a57806383d986151461028a57806395d89b41146102a85780639aadacb3146102c65761010b565b8063313ce567116100de578063313ce567146101ac57806339509351146101ca5780633f745929146101fa57806370a082311461022a5761010b565b806306fdde0314610110578063095ea7b31461012e57806318160ddd1461015e57806323b872dd1461017c575b600080fd5b6101186103e6565b604051610125919061154c565b60405180910390f35b6101486004803603810190610143919061128a565b610478565b6040516101559190611531565b60405180910390f35b61016661049b565b60405161017391906116ae565b60405180910390f35b6101966004803603810190610191919061123b565b6104a5565b6040516101a39190611531565b60405180910390f35b6101b46104d4565b6040516101c191906116c9565b60405180910390f35b6101e460048036038101906101df919061128a565b6104dd565b6040516101f19190611531565b60405180910390f35b610214600480360381019061020f91906111d6565b610514565b60405161022191906116ae565b60405180910390f35b610244600480360381019061023f91906111d6565b61063e565b60405161025191906116ae565b60405180910390f35b610274600480360381019061026f91906111d6565b610687565b60405161028191906116ae565b60405180910390f35b61029261072e565b60405161029f919061150f565b60405180910390f35b6102b06107bc565b6040516102bd919061154c565b60405180910390f35b6102e060048036038101906102db91906111d6565b61084e565b6040516102ed91906116ae565b60405180910390f35b610310600480360381019061030b919061128a565b6109cb565b60405161031d9190611531565b60405180910390f35b610340600480360381019061033b91906111d6565b610a42565b60405161034d91906116ae565b60405180910390f35b610370600480360381019061036b919061128a565b610b6e565b60405161037d9190611531565b60405180910390f35b6103a0600480360381019061039b91906111ff565b610b91565b6040516103ad91906116ae565b60405180910390f35b6103d060048036038101906103cb919061128a565b610c18565b6040516103dd91906116ae565b60405180910390f35b6060600380546103f5906118a5565b80601f0160208091040260200160405190810160405280929190818152602001828054610421906118a5565b801561046e5780601f106104435761010080835404028352916020019161046e565b820191906000526020600020905b81548152906001019060200180831161045157829003601f168201915b5050505050905090565b600080610483610ccb565b9050610490818585610cd3565b600191505092915050565b6000600254905090565b6000806104b0610ccb565b90506104bd858285610e9e565b6104c8858585610f2a565b60019150509392505050565b60006012905090565b6000806104e8610ccb565b90506105098185856104fa8589610b91565b6105049190611739565b610cd3565b600191505092915050565b60006005600660008473ffffffffffffffffffffffffffffffffffffffff1673ffffffffffffffffffffffffffffffffffffffff168152602001908152602001600020541015610599576040517f08c379a00000000000000000000000000000000000000000000000000000000081526004016105909061158e565b60405180910390fd5b674563918244f40000600660008473ffffffffffffffffffffffffffffffffffffffff1673ffffffffffffffffffffffffffffffffffffffff16815260200190815260200160002060008282546105f091906117e9565b92505081905550600660008373ffffffffffffffffffffffffffffffffffffffff1673ffffffffffffffffffffffffffffffffffffffff168152602001908152602001600020549050919050565b6000600660008373ffffffffffffffffffffffffffffffffffffffff1673ffffffffffffffffffffffffffffffffffffffff168152602001908152602001600020549050919050565b6000678ac7230489e80000600660008473ffffffffffffffffffffffffffffffffffffffff1673ffffffffffffffffffffffffffffffffffffffff16815260200190815260200160002060008282546106e09190611739565b92505081905550600660008373ffffffffffffffffffffffffffffffffffffffff1673ffffffffffffffffffffffffffffffffffffffff168152602001908152602001600020549050919050565b606060058054806020026020016040519081016040528092919081815260200182805480156107b257602002820191906000526020600020905b8160009054906101000a900473ffffffffffffffffffffffffffffffffffffffff1673ffffffffffffffffffffffffffffffffffffffff1681526020019060010190808311610768575b5050505050905090565b6060600480546107cb906118a5565b80601f01602080910402602001604051908101604052809291908181526020018280546107f7906118a5565b80156108445780601f1061081957610100808354040283529160200191610844565b820191906000526020600020905b81548152906001019060200180831161082757829003601f168201915b5050505050905090565b6000816000600660008373ffffffffffffffffffffffffffffffffffffffff1673ffffffffffffffffffffffffffffffffffffffff16815260200190815260200160002054146108d3576040517f08c379a00000000000000000000000000000000000000000000000000000000081526004016108ca9061166e565b60405180910390fd5b68056bc75e2d63100000600660008573ffffffffffffffffffffffffffffffffffffffff1673ffffffffffffffffffffffffffffffffffffffff168152602001908152602001600020819055506005839080600181540180825580915050600190039060005260206000200160009091909190916101000a81548173ffffffffffffffffffffffffffffffffffffffff021916908373ffffffffffffffffffffffffffffffffffffffff160217905550600660008473ffffffffffffffffffffffffffffffffffffffff1673ffffffffffffffffffffffffffffffffffffffff16815260200190815260200160002054915050919050565b6000806109d6610ccb565b905060006109e48286610b91565b905083811015610a29576040517f08c379a0000000000000000000000000000000000000000000000000000000008152600401610a209061168e565b60405180910390fd5b610a368286868403610cd3565b60019250505092915050565b6000816005600660008373ffffffffffffffffffffffffffffffffffffffff1673ffffffffffffffffffffffffffffffffffffffff168152602001908152602001600020541015610ac8576040517f08c379a0000000000000000000000000000000000000000000000000000000008152600401610abf906115ce565b60405180910390fd5b674563918244f40000600660008573ffffffffffffffffffffffffffffffffffffffff1673ffffffffffffffffffffffffffffffffffffffff1681526020019081526020016000206000828254610b1f91906117e9565b92505081905550600660008473ffffffffffffffffffffffffffffffffffffffff1673ffffffffffffffffffffffffffffffffffffffff16815260200190815260200160002054915050919050565b600080610b79610ccb565b9050610b86818585610f2a565b600191505092915050565b6000600160008473ffffffffffffffffffffffffffffffffffffffff1673ffffffffffffffffffffffffffffffffffffffff16815260200190815260200160002060008373ffffffffffffffffffffffffffffffffffffffff1673ffffffffffffffffffffffffffffffffffffffff16815260200190815260200160002054905092915050565b6000670de0b6b3a764000082610c2e919061178f565b600660008573ffffffffffffffffffffffffffffffffffffffff1673ffffffffffffffffffffffffffffffffffffffff1681526020019081526020016000206000828254610c7c9190611739565b92505081905550600660008473ffffffffffffffffffffffffffffffffffffffff1673ffffffffffffffffffffffffffffffffffffffff16815260200190815260200160002054905092915050565b600033905090565b600073ffffffffffffffffffffffffffffffffffffffff168373ffffffffffffffffffffffffffffffffffffffff161415610d43576040517f08c379a0000000000000000000000000000000000000000000000000000000008152600401610d3a9061164e565b60405180910390fd5b600073ffffffffffffffffffffffffffffffffffffffff168273ffffffffffffffffffffffffffffffffffffffff161415610db3576040517f08c379a0000000000000000000000000000000000000000000000000000000008152600401610daa906115ae565b60405180910390fd5b80600160008573ffffffffffffffffffffffffffffffffffffffff1673ffffffffffffffffffffffffffffffffffffffff16815260200190815260200160002060008473ffffffffffffffffffffffffffffffffffffffff1673ffffffffffffffffffffffffffffffffffffffff168152602001908152602001600020819055508173ffffffffffffffffffffffffffffffffffffffff168373ffffffffffffffffffffffffffffffffffffffff167f8c5be1e5ebec7d5bd14f71427d1e84f3dd0314c0f7b2291e5b200ac8c7c3b92583604051610e9191906116ae565b60405180910390a3505050565b6000610eaa8484610b91565b90507fffffffffffffffffffffffffffffffffffffffffffffffffffffffffffffffff8114610f245781811015610f16576040517f08c379a0000000000000000000000000000000000000000000000000000000008152600401610f0d906115ee565b60405180910390fd5b610f238484848403610cd3565b5b50505050565b600073ffffffffffffffffffffffffffffffffffffffff168373ffffffffffffffffffffffffffffffffffffffff161415610f9a576040517f08c379a0000000000000000000000000000000000000000000000000000000008152600401610f919061162e565b60405180910390fd5b600073ffffffffffffffffffffffffffffffffffffffff168273ffffffffffffffffffffffffffffffffffffffff16141561100a576040517f08c379a00000000000000000000000000000000000000000000000000000000081526004016110019061156e565b60405180910390fd5b6110158383836111a2565b60008060008573ffffffffffffffffffffffffffffffffffffffff1673ffffffffffffffffffffffffffffffffffffffff1681526020019081526020016000205490508181101561109b576040517f08c379a00000000000000000000000000000000000000000000000000000000081526004016110929061160e565b60405180910390fd5b8181036000808673ffffffffffffffffffffffffffffffffffffffff1673ffffffffffffffffffffffffffffffffffffffff16815260200190815260200160002081905550816000808573ffffffffffffffffffffffffffffffffffffffff1673ffffffffffffffffffffffffffffffffffffffff168152602001908152602001600020600082825401925050819055508273ffffffffffffffffffffffffffffffffffffffff168473ffffffffffffffffffffffffffffffffffffffff167fddf252ad1be2c89b69c2b068fc378daa952ba7f163c4a11628f55a4df523b3ef8460405161118991906116ae565b60405180910390a361119c8484846111a7565b50505050565b505050565b505050565b6000813590506111bb81611c36565b92915050565b6000813590506111d081611c4d565b92915050565b6000602082840312156111e857600080fd5b60006111f6848285016111ac565b91505092915050565b6000806040838503121561121257600080fd5b6000611220858286016111ac565b9250506020611231858286016111ac565b9150509250929050565b60008060006060848603121561125057600080fd5b600061125e868287016111ac565b935050602061126f868287016111ac565b9250506040611280868287016111c1565b9150509250925092565b6000806040838503121561129d57600080fd5b60006112ab858286016111ac565b92505060206112bc858286016111c1565b9150509250929050565b60006112d283836112de565b60208301905092915050565b6112e78161181d565b82525050565b60006112f8826116f4565b6113028185611717565b935061130d836116e4565b8060005b8381101561133e57815161132588826112c6565b97506113308361170a565b925050600181019050611311565b5085935050505092915050565b6113548161182f565b82525050565b6000611365826116ff565b61136f8185611728565b935061137f818560208601611872565b61138881611935565b840191505092915050565b60006113a0602383611728565b91506113ab82611946565b604082019050919050565b60006113c3603683611728565b91506113ce82611995565b604082019050919050565b60006113e6602283611728565b91506113f1826119e4565b604082019050919050565b6000611409603483611728565b915061141482611a33565b604082019050919050565b600061142c601d83611728565b915061143782611a82565b602082019050919050565b600061144f602683611728565b915061145a82611aab565b604082019050919050565b6000611472602583611728565b915061147d82611afa565b604082019050919050565b6000611495602483611728565b91506114a082611b49565b604082019050919050565b60006114b8603883611728565b91506114c382611b98565b604082019050919050565b60006114db602583611728565b91506114e682611be7565b604082019050919050565b6114fa8161185b565b82525050565b61150981611865565b82525050565b6000602082019050818103600083015261152981846112ed565b905092915050565b6000602082019050611546600083018461134b565b92915050565b60006020820190508181036000830152611566818461135a565b905092915050565b6000602082019050818103600083015261158781611393565b9050919050565b600060208201905081810360008301526115a7816113b6565b9050919050565b600060208201905081810360008301526115c7816113d9565b9050919050565b600060208201905081810360008301526115e7816113fc565b9050919050565b600060208201905081810360008301526116078161141f565b9050919050565b6000602082019050818103600083015261162781611442565b9050919050565b6000602082019050818103600083015261164781611465565b9050919050565b6000602082019050818103600083015261166781611488565b9050919050565b60006020820190508181036000830152611687816114ab565b9050919050565b600060208201905081810360008301526116a7816114ce565b9050919050565b60006020820190506116c360008301846114f1565b92915050565b60006020820190506116de6000830184611500565b92915050565b6000819050602082019050919050565b600081519050919050565b600081519050919050565b6000602082019050919050565b600082825260208201905092915050565b600082825260208201905092915050565b60006117448261185b565b915061174f8361185b565b9250827fffffffffffffffffffffffffffffffffffffffffffffffffffffffffffffffff03821115611784576117836118d7565b5b828201905092915050565b600061179a8261185b565b91506117a58361185b565b9250817fffffffffffffffffffffffffffffffffffffffffffffffffffffffffffffffff04831182151516156117de576117dd6118d7565b5b828202905092915050565b60006117f48261185b565b91506117ff8361185b565b925082821015611812576118116118d7565b5b828203905092915050565b60006118288261183b565b9050919050565b60008115159050919050565b600073ffffffffffffffffffffffffffffffffffffffff82169050919050565b6000819050919050565b600060ff82169050919050565b60005b83811015611890578082015181840152602081019050611875565b8381111561189f576000848401525b50505050565b600060028204905060018216806118bd57607f821691505b602082108114156118d1576118d0611906565b5b50919050565b7f4e487b7100000000000000000000000000000000000000000000000000000000600052601160045260246000fd5b7f4e487b7100000000000000000000000000000000000000000000000000000000600052602260045260246000fd5b6000601f19601f8301169050919050565b7f45524332303a207472616e7366657220746f20746865207a65726f206164647260008201527f6573730000000000000000000000000000000000000000000000000000000000602082015250565b7f5061726120696e696369617220756d6120666f7263612c20766f63652070726560008201527f6369736120646520616f206d656e6f7320352046437300000000000000000000602082015250565b7f45524332303a20617070726f766520746f20746865207a65726f20616464726560008201527f7373000000000000000000000000000000000000000000000000000000000000602082015250565b7f5061726120637269617220756d6120666f7263612c20766f636520707265636960008201527f736120646520616f206d656e6f73203520464373000000000000000000000000602082015250565b7f45524332303a20696e73756666696369656e7420616c6c6f77616e6365000000600082015250565b7f45524332303a207472616e7366657220616d6f756e742065786365656473206260008201527f616c616e63650000000000000000000000000000000000000000000000000000602082015250565b7f45524332303a207472616e736665722066726f6d20746865207a65726f20616460008201527f6472657373000000000000000000000000000000000000000000000000000000602082015250565b7f45524332303a20617070726f76652066726f6d20746865207a65726f2061646460008201527f7265737300000000000000000000000000000000000000000000000000000000602082015250565b7f4f20736171756520696e696369616c20736f2065206c6962657261646f20706160008201527f726120636f6e74617320636f6d20302064652073616c646f0000000000000000602082015250565b7f45524332303a2064656372656173656420616c6c6f77616e63652062656c6f7760008201527f207a65726f000000000000000000000000000000000000000000000000000000602082015250565b611c3f8161181d565b8114611c4a57600080fd5b50565b611c568161185b565b8114611c6157600080fd5b5056fea264697066735822122032738ee4498978f633daa141424ceddb549ac6b63fa81d580d583b43f419186564736f6c63430008040033",
  "linkReferences": {},
  "deployedLinkReferences": {}
}