{
  "_format": "hh-sol-artifact-1",
  "contractName": "Jogo",
  "sourceName": "contracts/Jogo.sol",
  "abi": [
    {
      "inputs": [
        {
          "internalType": "string",
          "name": "id",
          "type": "string"
        },
        {
          "internalType": "address",
          "name": "dono",
          "type": "address"
        },
        {
          "internalType": "string",
          "name": "tema",
          "type": "string"
        },
        {
          "internalType": "string",
          "name": "palavraSecreta",
          "type": "string"
        }
      ],
      "stateMutability": "nonpayable",
      "type": "constructor"
    },
    {
      "inputs": [],
      "name": "finalizaForca",
      "outputs": [],
      "stateMutability": "nonpayable",
      "type": "function"
    },
    {
      "inputs": [],
      "name": "getForca",
      "outputs": [
        {
          "components": [
            {
              "internalType": "string",
              "name": "id",
              "type": "string"
            },
            {
              "internalType": "address",
              "name": "dono",
              "type": "address"
            },
            {
              "internalType": "address",
              "name": "jogador",
              "type": "address"
            },
            {
              "internalType": "string",
              "name": "tema",
              "type": "string"
            },
            {
              "internalType": "string",
              "name": "palavraSecreta",
              "type": "string"
            },
            {
              "internalType": "enum LibForca.Status",
              "name": "status",
              "type": "uint8"
            }
          ],
          "internalType": "struct LibForca.Forca",
          "name": "",
          "type": "tuple"
        }
      ],
      "stateMutability": "view",
      "type": "function"
    },
    {
      "inputs": [
        {
          "internalType": "address",
          "name": "jogador",
          "type": "address"
        }
      ],
      "name": "iniciaForca",
      "outputs": [],
      "stateMutability": "nonpayable",
      "type": "function"
    }
  ],
  "bytecode": "0x60806040523480156200001157600080fd5b506040516200128a3803806200128a833981810160405281019062000037919062000395565b336000806101000a81548173ffffffffffffffffffffffffffffffffffffffff021916908373ffffffffffffffffffffffffffffffffffffffff1602179055506040518060c001604052808581526020018473ffffffffffffffffffffffffffffffffffffffff168152602001600073ffffffffffffffffffffffffffffffffffffffff1681526020018381526020018281526020016000600281111562000108577f4e487b7100000000000000000000000000000000000000000000000000000000600052602160045260246000fd5b815250600160008201518160000190805190602001906200012b9291906200025c565b5060208201518160010160006101000a81548173ffffffffffffffffffffffffffffffffffffffff021916908373ffffffffffffffffffffffffffffffffffffffff16021790555060408201518160020160006101000a81548173ffffffffffffffffffffffffffffffffffffffff021916908373ffffffffffffffffffffffffffffffffffffffff1602179055506060820151816003019080519060200190620001d89291906200025c565b506080820151816004019080519060200190620001f79291906200025c565b5060a08201518160050160006101000a81548160ff021916908360028111156200024a577f4e487b7100000000000000000000000000000000000000000000000000000000600052602160045260246000fd5b0217905550905050505050506200060a565b8280546200026a9062000515565b90600052602060002090601f0160209004810192826200028e5760008555620002da565b82601f10620002a957805160ff1916838001178555620002da565b82800160010185558215620002da579182015b82811115620002d9578251825591602001919060010190620002bc565b5b509050620002e99190620002ed565b5090565b5b8082111562000308576000816000905550600101620002ee565b5090565b6000620003236200031d8462000475565b6200044c565b9050828152602081018484840111156200033c57600080fd5b62000349848285620004df565b509392505050565b6000815190506200036281620005f0565b92915050565b600082601f8301126200037a57600080fd5b81516200038c8482602086016200030c565b91505092915050565b60008060008060808587031215620003ac57600080fd5b600085015167ffffffffffffffff811115620003c757600080fd5b620003d58782880162000368565b9450506020620003e88782880162000351565b935050604085015167ffffffffffffffff8111156200040657600080fd5b620004148782880162000368565b925050606085015167ffffffffffffffff8111156200043257600080fd5b620004408782880162000368565b91505092959194509250565b6000620004586200046b565b90506200046682826200054b565b919050565b6000604051905090565b600067ffffffffffffffff821115620004935762000492620005b0565b5b6200049e82620005df565b9050602081019050919050565b6000620004b882620004bf565b9050919050565b600073ffffffffffffffffffffffffffffffffffffffff82169050919050565b60005b83811015620004ff578082015181840152602081019050620004e2565b838111156200050f576000848401525b50505050565b600060028204905060018216806200052e57607f821691505b6020821081141562000545576200054462000581565b5b50919050565b6200055682620005df565b810181811067ffffffffffffffff82111715620005785762000577620005b0565b5b80604052505050565b7f4e487b7100000000000000000000000000000000000000000000000000000000600052602260045260246000fd5b7f4e487b7100000000000000000000000000000000000000000000000000000000600052604160045260246000fd5b6000601f19601f8301169050919050565b620005fb81620004ab565b81146200060757600080fd5b50565b610c70806200061a6000396000f3fe608060405234801561001057600080fd5b50600436106100415760003560e01c806390d15341146100465780639eccd5be14610064578063d19a0fdb1461006e575b600080fd5b61004e61008a565b60405161005b9190610982565b60405180910390f35b61006c61038d565b005b610088600480360381019061008391906107a2565b610471565b005b6100926106f3565b60016040518060c00160405290816000820180546100af90610a5b565b80601f01602080910402602001604051908101604052809291908181526020018280546100db90610a5b565b80156101285780601f106100fd57610100808354040283529160200191610128565b820191906000526020600020905b81548152906001019060200180831161010b57829003601f168201915b505050505081526020016001820160009054906101000a900473ffffffffffffffffffffffffffffffffffffffff1673ffffffffffffffffffffffffffffffffffffffff1673ffffffffffffffffffffffffffffffffffffffff1681526020016002820160009054906101000a900473ffffffffffffffffffffffffffffffffffffffff1673ffffffffffffffffffffffffffffffffffffffff1673ffffffffffffffffffffffffffffffffffffffff1681526020016003820180546101ed90610a5b565b80601f016020809104026020016040519081016040528092919081815260200182805461021990610a5b565b80156102665780601f1061023b57610100808354040283529160200191610266565b820191906000526020600020905b81548152906001019060200180831161024957829003601f168201915b5050505050815260200160048201805461027f90610a5b565b80601f01602080910402602001604051908101604052809291908181526020018280546102ab90610a5b565b80156102f85780601f106102cd576101008083540402835291602001916102f8565b820191906000526020600020905b8154815290600101906020018083116102db57829003601f168201915b505050505081526020016005820160009054906101000a900460ff16600281111561034c577f4e487b7100000000000000000000000000000000000000000000000000000000600052602160045260246000fd5b6002811115610384577f4e487b7100000000000000000000000000000000000000000000000000000000600052602160045260246000fd5b81525050905090565b60008054906101000a900473ffffffffffffffffffffffffffffffffffffffff1673ffffffffffffffffffffffffffffffffffffffff163373ffffffffffffffffffffffffffffffffffffffff161461041b576040517f08c379a000000000000000000000000000000000000000000000000000000000815260040161041290610942565b60405180910390fd5b6002600160050160006101000a81548160ff0219169083600281111561046a577f4e487b7100000000000000000000000000000000000000000000000000000000600052602160045260246000fd5b0217905550565b60008054906101000a900473ffffffffffffffffffffffffffffffffffffffff1673ffffffffffffffffffffffffffffffffffffffff163373ffffffffffffffffffffffffffffffffffffffff16146104ff576040517f08c379a00000000000000000000000000000000000000000000000000000000081526004016104f690610942565b60405180910390fd5b808073ffffffffffffffffffffffffffffffffffffffff166001800160009054906101000a900473ffffffffffffffffffffffffffffffffffffffff1673ffffffffffffffffffffffffffffffffffffffff161415610593576040517f08c379a000000000000000000000000000000000000000000000000000000000815260040161058a90610922565b60405180910390fd5b600060028111156105cd577f4e487b7100000000000000000000000000000000000000000000000000000000600052602160045260246000fd5b600160050160009054906101000a900460ff166002811115610618577f4e487b7100000000000000000000000000000000000000000000000000000000600052602160045260246000fd5b14610658576040517f08c379a000000000000000000000000000000000000000000000000000000000815260040161064f90610962565b60405180910390fd5b81600160020160006101000a81548173ffffffffffffffffffffffffffffffffffffffff021916908373ffffffffffffffffffffffffffffffffffffffff16021790555060018060050160006101000a81548160ff021916908360028111156106ea577f4e487b7100000000000000000000000000000000000000000000000000000000600052602160045260246000fd5b02179055505050565b6040518060c0016040528060608152602001600073ffffffffffffffffffffffffffffffffffffffff168152602001600073ffffffffffffffffffffffffffffffffffffffff168152602001606081526020016060815260200160006002811115610787577f4e487b7100000000000000000000000000000000000000000000000000000000600052602160045260246000fd5b81525090565b60008135905061079c81610c23565b92915050565b6000602082840312156107b457600080fd5b60006107c28482850161078d565b91505092915050565b6107d4816109d1565b82525050565b6107e381610a16565b82525050565b60006107f4826109a4565b6107fe81856109af565b935061080e818560208601610a28565b61081781610aeb565b840191505092915050565b600061082f6027836109c0565b915061083a82610afc565b604082019050919050565b6000610852601f836109c0565b915061085d82610b4b565b602082019050919050565b6000610875606b836109c0565b915061088082610b74565b608082019050919050565b600060c08301600083015184820360008601526108a882826107e9565b91505060208301516108bd60208601826107cb565b5060408301516108d060408601826107cb565b50606083015184820360608601526108e882826107e9565b9150506080830151848203608086015261090282826107e9565b91505060a083015161091760a08601826107da565b508091505092915050565b6000602082019050818103600083015261093b81610822565b9050919050565b6000602082019050818103600083015261095b81610845565b9050919050565b6000602082019050818103600083015261097b81610868565b9050919050565b6000602082019050818103600083015261099c818461088b565b905092915050565b600081519050919050565b600082825260208201905092915050565b600082825260208201905092915050565b60006109dc826109f6565b9050919050565b60008190506109f182610c0f565b919050565b600073ffffffffffffffffffffffffffffffffffffffff82169050919050565b6000610a21826109e3565b9050919050565b60005b83811015610a46578082015181840152602081019050610a2b565b83811115610a55576000848401525b50505050565b60006002820490506001821680610a7357607f821691505b60208210811415610a8757610a86610abc565b5b50919050565b7f4e487b7100000000000000000000000000000000000000000000000000000000600052602160045260246000fd5b7f4e487b7100000000000000000000000000000000000000000000000000000000600052602260045260246000fd5b6000601f19601f8301169050919050565b7f566f6365206e616f20706f6465206a6f6761722061207375612070726f70726960008201527f6120666f72636100000000000000000000000000000000000000000000000000602082015250565b7f566f63652070726563697361207574696c697a61722061206661627269636100600082015250565b7f4e616f206520706f73736976656c20696e696369617220756d6120666f72636160008201527f20717565206e616f20657374656a61206162657274612e2e2e20506f7220666160208201527f766f722c20617475616c697a652061206c6973746120646520666f726361732060408201527f646973706f6e6976656973000000000000000000000000000000000000000000606082015250565b60038110610c2057610c1f610a8d565b5b50565b610c2c816109d1565b8114610c3757600080fd5b5056fea2646970667358221220dccef1ecdaad24edabedc273057718a2b90d28143c870cdcdf31ee58d04f6aeb64736f6c63430008040033",
  "linkReferences": {},
  "deployedLinkReferences": {}
}