{
  "_format": "hh-sol-artifact-1",
  "contractName": "ForcaCoin",
  "sourceName": "contracts/ForcaCoin.sol",
  "abi": [
    {
      "inputs": [],
      "stateMutability": "nonpayable",
      "type": "constructor"
    },
    {
      "anonymous": false,
      "inputs": [
        {
          "indexed": true,
          "internalType": "address",
          "name": "owner",
          "type": "address"
        },
        {
          "indexed": true,
          "internalType": "address",
          "name": "spender",
          "type": "address"
        },
        {
          "indexed": false,
          "internalType": "uint256",
          "name": "value",
          "type": "uint256"
        }
      ],
      "name": "Approval",
      "type": "event"
    },
    {
      "anonymous": false,
      "inputs": [
        {
          "indexed": true,
          "internalType": "address",
          "name": "from",
          "type": "address"
        },
        {
          "indexed": true,
          "internalType": "address",
          "name": "to",
          "type": "address"
        },
        {
          "indexed": false,
          "internalType": "uint256",
          "name": "value",
          "type": "uint256"
        }
      ],
      "name": "Transfer",
      "type": "event"
    },
    {
      "inputs": [
        {
          "internalType": "address",
          "name": "owner",
          "type": "address"
        },
        {
          "internalType": "address",
          "name": "spender",
          "type": "address"
        }
      ],
      "name": "allowance",
      "outputs": [
        {
          "internalType": "uint256",
          "name": "",
          "type": "uint256"
        }
      ],
      "stateMutability": "view",
      "type": "function"
    },
    {
      "inputs": [
        {
          "internalType": "address",
          "name": "spender",
          "type": "address"
        },
        {
          "internalType": "uint256",
          "name": "amount",
          "type": "uint256"
        }
      ],
      "name": "approve",
      "outputs": [
        {
          "internalType": "bool",
          "name": "",
          "type": "bool"
        }
      ],
      "stateMutability": "nonpayable",
      "type": "function"
    },
    {
      "inputs": [
        {
          "internalType": "address",
          "name": "endereco",
          "type": "address"
        }
      ],
      "name": "balanceOf",
      "outputs": [
        {
          "internalType": "uint256",
          "name": "balance",
          "type": "uint256"
        }
      ],
      "stateMutability": "view",
      "type": "function"
    },
    {
      "inputs": [],
      "name": "decimals",
      "outputs": [
        {
          "internalType": "uint8",
          "name": "",
          "type": "uint8"
        }
      ],
      "stateMutability": "view",
      "type": "function"
    },
    {
      "inputs": [
        {
          "internalType": "address",
          "name": "spender",
          "type": "address"
        },
        {
          "internalType": "uint256",
          "name": "subtractedValue",
          "type": "uint256"
        }
      ],
      "name": "decreaseAllowance",
      "outputs": [
        {
          "internalType": "bool",
          "name": "",
          "type": "bool"
        }
      ],
      "stateMutability": "nonpayable",
      "type": "function"
    },
    {
      "inputs": [],
      "name": "getUsuarios",
      "outputs": [
        {
          "internalType": "address[]",
          "name": "",
          "type": "address[]"
        }
      ],
      "stateMutability": "view",
      "type": "function"
    },
    {
      "inputs": [
        {
          "internalType": "address",
          "name": "spender",
          "type": "address"
        },
        {
          "internalType": "uint256",
          "name": "addedValue",
          "type": "uint256"
        }
      ],
      "name": "increaseAllowance",
      "outputs": [
        {
          "internalType": "bool",
          "name": "",
          "type": "bool"
        }
      ],
      "stateMutability": "nonpayable",
      "type": "function"
    },
    {
      "inputs": [],
      "name": "name",
      "outputs": [
        {
          "internalType": "string",
          "name": "",
          "type": "string"
        }
      ],
      "stateMutability": "view",
      "type": "function"
    },
    {
      "inputs": [
        {
          "internalType": "address",
          "name": "endereco",
          "type": "address"
        }
      ],
      "name": "pagaCriacaoForca",
      "outputs": [
        {
          "internalType": "uint256",
          "name": "",
          "type": "uint256"
        }
      ],
      "stateMutability": "nonpayable",
      "type": "function"
    },
    {
      "inputs": [
        {
          "internalType": "address",
          "name": "endereco",
          "type": "address"
        }
      ],
      "name": "pagaIniciacaoForca",
      "outputs": [
        {
          "internalType": "uint256",
          "name": "",
          "type": "uint256"
        }
      ],
      "stateMutability": "nonpayable",
      "type": "function"
    },
    {
      "inputs": [
        {
          "internalType": "address",
          "name": "criador",
          "type": "address"
        },
        {
          "internalType": "uint256",
          "name": "recompensaCriador",
          "type": "uint256"
        }
      ],
      "name": "recompensaCriadorForca",
      "outputs": [
        {
          "internalType": "uint256",
          "name": "",
          "type": "uint256"
        }
      ],
      "stateMutability": "nonpayable",
      "type": "function"
    },
    {
      "inputs": [
        {
          "internalType": "address",
          "name": "jogador",
          "type": "address"
        }
      ],
      "name": "recompensaJogadorForca",
      "outputs": [
        {
          "internalType": "uint256",
          "name": "",
          "type": "uint256"
        }
      ],
      "stateMutability": "nonpayable",
      "type": "function"
    },
    {
      "inputs": [
        {
          "internalType": "address",
          "name": "endereco",
          "type": "address"
        }
      ],
      "name": "saqueInicial",
      "outputs": [
        {
          "internalType": "uint256",
          "name": "",
          "type": "uint256"
        }
      ],
      "stateMutability": "nonpayable",
      "type": "function"
    },
    {
      "inputs": [],
      "name": "symbol",
      "outputs": [
        {
          "internalType": "string",
          "name": "",
          "type": "string"
        }
      ],
      "stateMutability": "view",
      "type": "function"
    },
    {
      "inputs": [],
      "name": "totalSupply",
      "outputs": [
        {
          "internalType": "uint256",
          "name": "",
          "type": "uint256"
        }
      ],
      "stateMutability": "view",
      "type": "function"
    },
    {
      "inputs": [
        {
          "internalType": "address",
          "name": "to",
          "type": "address"
        },
        {
          "internalType": "uint256",
          "name": "amount",
          "type": "uint256"
        }
      ],
      "name": "transfer",
      "outputs": [
        {
          "internalType": "bool",
          "name": "",
          "type": "bool"
        }
      ],
      "stateMutability": "nonpayable",
      "type": "function"
    },
    {
      "inputs": [
        {
          "internalType": "address",
          "name": "from",
          "type": "address"
        },
        {
          "internalType": "address",
          "name": "to",
          "type": "address"
        },
        {
          "internalType": "uint256",
          "name": "amount",
          "type": "uint256"
        }
      ],
      "name": "transferFrom",
      "outputs": [
        {
          "internalType": "bool",
          "name": "",
          "type": "bool"
        }
      ],
      "stateMutability": "nonpayable",
      "type": "function"
    }
  ],
  "bytecode": "0x60806040523480156200001157600080fd5b506040518060400160405280600981526020017f466f726361436f696e00000000000000000000000000000000000000000000008152506040518060400160405280600281526020017f4643000000000000000000000000000000000000000000000000000000000000815250816003908051906020019062000096929190620000b8565b508060049080519060200190620000af929190620000b8565b505050620001cd565b828054620000c69062000168565b90600052602060002090601f016020900481019282620000ea576000855562000136565b82601f106200010557805160ff191683800117855562000136565b8280016001018555821562000136579182015b828111156200013557825182559160200191906001019062000118565b5b50905062000145919062000149565b5090565b5b80821115620001645760008160009055506001016200014a565b5090565b600060028204905060018216806200018157607f821691505b602082108114156200019857620001976200019e565b5b50919050565b7f4e487b7100000000000000000000000000000000000000000000000000000000600052602260045260246000fd5b611c9a80620001dd6000396000f3fe608060405234801561001057600080fd5b506004361061010b5760003560e01c80637e183a38116100a2578063a457c2d711610071578063a457c2d7146102f6578063a8448d9214610326578063a9059cbb14610356578063dd62ed3e14610386578063e0a20e6f146103b65761010b565b80637e183a381461025a57806383d986151461028a57806395d89b41146102a85780639aadacb3146102c65761010b565b8063313ce567116100de578063313ce567146101ac57806339509351146101ca5780633f745929146101fa57806370a082311461022a5761010b565b806306fdde0314610110578063095ea7b31461012e57806318160ddd1461015e57806323b872dd1461017c575b600080fd5b6101186103e6565b604051610125919061154c565b60405180910390f35b6101486004803603810190610143919061128a565b610478565b6040516101559190611531565b60405180910390f35b61016661049b565b60405161017391906116ae565b60405180910390f35b6101966004803603810190610191919061123b565b6104a5565b6040516101a39190611531565b60405180910390f35b6101b46104d4565b6040516101c191906116c9565b60405180910390f35b6101e460048036038101906101df919061128a565b6104dd565b6040516101f19190611531565b60405180910390f35b610214600480360381019061020f91906111d6565b610514565b60405161022191906116ae565b60405180910390f35b610244600480360381019061023f91906111d6565b61063e565b60405161025191906116ae565b60405180910390f35b610274600480360381019061026f91906111d6565b610687565b60405161028191906116ae565b60405180910390f35b61029261072e565b60405161029f919061150f565b60405180910390f35b6102b06107bc565b6040516102bd919061154c565b60405180910390f35b6102e060048036038101906102db91906111d6565b61084e565b6040516102ed91906116ae565b60405180910390f35b610310600480360381019061030b919061128a565b6109cb565b60405161031d9190611531565b60405180910390f35b610340600480360381019061033b91906111d6565b610a42565b60405161034d91906116ae565b60405180910390f35b610370600480360381019061036b919061128a565b610b6e565b60405161037d9190611531565b60405180910390f35b6103a0600480360381019061039b91906111ff565b610b91565b6040516103ad91906116ae565b60405180910390f35b6103d060048036038101906103cb919061128a565b610c18565b6040516103dd91906116ae565b60405180910390f35b6060600380546103f5906118a5565b80601f0160208091040260200160405190810160405280929190818152602001828054610421906118a5565b801561046e5780601f106104435761010080835404028352916020019161046e565b820191906000526020600020905b81548152906001019060200180831161045157829003601f168201915b5050505050905090565b600080610483610ccb565b9050610490818585610cd3565b600191505092915050565b6000600254905090565b6000806104b0610ccb565b90506104bd858285610e9e565b6104c8858585610f2a565b60019150509392505050565b60006012905090565b6000806104e8610ccb565b90506105098185856104fa8589610b91565b6105049190611739565b610cd3565b600191505092915050565b60006005600660008473ffffffffffffffffffffffffffffffffffffffff1673ffffffffffffffffffffffffffffffffffffffff168152602001908152602001600020541015610599576040517f08c379a00000000000000000000000000000000000000000000000000000000081526004016105909061158e565b60405180910390fd5b674563918244f40000600660008473ffffffffffffffffffffffffffffffffffffffff1673ffffffffffffffffffffffffffffffffffffffff16815260200190815260200160002060008282546105f091906117e9565b92505081905550600660008373ffffffffffffffffffffffffffffffffffffffff1673ffffffffffffffffffffffffffffffffffffffff168152602001908152602001600020549050919050565b6000600660008373ffffffffffffffffffffffffffffffffffffffff1673ffffffffffffffffffffffffffffffffffffffff168152602001908152602001600020549050919050565b6000678ac7230489e80000600660008473ffffffffffffffffffffffffffffffffffffffff1673ffffffffffffffffffffffffffffffffffffffff16815260200190815260200160002060008282546106e09190611739565b92505081905550600660008373ffffffffffffffffffffffffffffffffffffffff1673ffffffffffffffffffffffffffffffffffffffff168152602001908152602001600020549050919050565b606060058054806020026020016040519081016040528092919081815260200182805480156107b257602002820191906000526020600020905b8160009054906101000a900473ffffffffffffffffffffffffffffffffffffffff1673ffffffffffffffffffffffffffffffffffffffff1681526020019060010190808311610768575b5050505050905090565b6060600480546107cb906118a5565b80601f01602080910402602001604051908101604052809291908181526020018280546107f7906118a5565b80156108445780601f1061081957610100808354040283529160200191610844565b820191906000526020600020905b81548152906001019060200180831161082757829003601f168201915b5050505050905090565b6000816000600660008373ffffffffffffffffffffffffffffffffffffffff1673ffffffffffffffffffffffffffffffffffffffff16815260200190815260200160002054146108d3576040517f08c379a00000000000000000000000000000000000000000000000000000000081526004016108ca9061166e565b60405180910390fd5b68056bc75e2d63100000600660008573ffffffffffffffffffffffffffffffffffffffff1673ffffffffffffffffffffffffffffffffffffffff168152602001908152602001600020819055506005839080600181540180825580915050600190039060005260206000200160009091909190916101000a81548173ffffffffffffffffffffffffffffffffffffffff021916908373ffffffffffffffffffffffffffffffffffffffff160217905550600660008473ffffffffffffffffffffffffffffffffffffffff1673ffffffffffffffffffffffffffffffffffffffff16815260200190815260200160002054915050919050565b6000806109d6610ccb565b905060006109e48286610b91565b905083811015610a29576040517f08c379a0000000000000000000000000000000000000000000000000000000008152600401610a209061168e565b60405180910390fd5b610a368286868403610cd3565b60019250505092915050565b6000816005600660008373ffffffffffffffffffffffffffffffffffffffff1673ffffffffffffffffffffffffffffffffffffffff168152602001908152602001600020541015610ac8576040517f08c379a0000000000000000000000000000000000000000000000000000000008152600401610abf906115ce565b60405180910390fd5b674563918244f40000600660008573ffffffffffffffffffffffffffffffffffffffff1673ffffffffffffffffffffffffffffffffffffffff1681526020019081526020016000206000828254610b1f91906117e9565b92505081905550600660008473ffffffffffffffffffffffffffffffffffffffff1673ffffffffffffffffffffffffffffffffffffffff16815260200190815260200160002054915050919050565b600080610b79610ccb565b9050610b86818585610f2a565b600191505092915050565b6000600160008473ffffffffffffffffffffffffffffffffffffffff1673ffffffffffffffffffffffffffffffffffffffff16815260200190815260200160002060008373ffffffffffffffffffffffffffffffffffffffff1673ffffffffffffffffffffffffffffffffffffffff16815260200190815260200160002054905092915050565b6000670de0b6b3a764000082610c2e919061178f565b600660008573ffffffffffffffffffffffffffffffffffffffff1673ffffffffffffffffffffffffffffffffffffffff1681526020019081526020016000206000828254610c7c9190611739565b92505081905550600660008473ffffffffffffffffffffffffffffffffffffffff1673ffffffffffffffffffffffffffffffffffffffff16815260200190815260200160002054905092915050565b600033905090565b600073ffffffffffffffffffffffffffffffffffffffff168373ffffffffffffffffffffffffffffffffffffffff161415610d43576040517f08c379a0000000000000000000000000000000000000000000000000000000008152600401610d3a9061164e565b60405180910390fd5b600073ffffffffffffffffffffffffffffffffffffffff168273ffffffffffffffffffffffffffffffffffffffff161415610db3576040517f08c379a0000000000000000000000000000000000000000000000000000000008152600401610daa906115ae565b60405180910390fd5b80600160008573ffffffffffffffffffffffffffffffffffffffff1673ffffffffffffffffffffffffffffffffffffffff16815260200190815260200160002060008473ffffffffffffffffffffffffffffffffffffffff1673ffffffffffffffffffffffffffffffffffffffff168152602001908152602001600020819055508173ffffffffffffffffffffffffffffffffffffffff168373ffffffffffffffffffffffffffffffffffffffff167f8c5be1e5ebec7d5bd14f71427d1e84f3dd0314c0f7b2291e5b200ac8c7c3b92583604051610e9191906116ae565b60405180910390a3505050565b6000610eaa8484610b91565b90507fffffffffffffffffffffffffffffffffffffffffffffffffffffffffffffffff8114610f245781811015610f16576040517f08c379a0000000000000000000000000000000000000000000000000000000008152600401610f0d906115ee565b60405180910390fd5b610f238484848403610cd3565b5b50505050565b600073ffffffffffffffffffffffffffffffffffffffff168373ffffffffffffffffffffffffffffffffffffffff161415610f9a576040517f08c379a0000000000000000000000000000000000000000000000000000000008152600401610f919061162e565b60405180910390fd5b600073ffffffffffffffffffffffffffffffffffffffff168273ffffffffffffffffffffffffffffffffffffffff16141561100a576040517f08c379a00000000000000000000000000000000000000000000000000000000081526004016110019061156e565b60405180910390fd5b6110158383836111a2565b60008060008573ffffffffffffffffffffffffffffffffffffffff1673ffffffffffffffffffffffffffffffffffffffff1681526020019081526020016000205490508181101561109b576040517f08c379a00000000000000000000000000000000000000000000000000000000081526004016110929061160e565b60405180910390fd5b8181036000808673ffffffffffffffffffffffffffffffffffffffff1673ffffffffffffffffffffffffffffffffffffffff16815260200190815260200160002081905550816000808573ffffffffffffffffffffffffffffffffffffffff1673ffffffffffffffffffffffffffffffffffffffff168152602001908152602001600020600082825401925050819055508273ffffffffffffffffffffffffffffffffffffffff168473ffffffffffffffffffffffffffffffffffffffff167fddf252ad1be2c89b69c2b068fc378daa952ba7f163c4a11628f55a4df523b3ef8460405161118991906116ae565b60405180910390a361119c8484846111a7565b50505050565b505050565b505050565b6000813590506111bb81611c36565b92915050565b6000813590506111d081611c4d565b92915050565b6000602082840312156111e857600080fd5b60006111f6848285016111ac565b91505092915050565b6000806040838503121561121257600080fd5b6000611220858286016111ac565b9250506020611231858286016111ac565b9150509250929050565b60008060006060848603121561125057600080fd5b600061125e868287016111ac565b935050602061126f868287016111ac565b9250506040611280868287016111c1565b9150509250925092565b6000806040838503121561129d57600080fd5b60006112ab858286016111ac565b92505060206112bc858286016111c1565b9150509250929050565b60006112d283836112de565b60208301905092915050565b6112e78161181d565b82525050565b60006112f8826116f4565b6113028185611717565b935061130d836116e4565b8060005b8381101561133e57815161132588826112c6565b97506113308361170a565b925050600181019050611311565b5085935050505092915050565b6113548161182f565b82525050565b6000611365826116ff565b61136f8185611728565b935061137f818560208601611872565b61138881611935565b840191505092915050565b60006113a0602383611728565b91506113ab82611946565b604082019050919050565b60006113c3603683611728565b91506113ce82611995565b604082019050919050565b60006113e6602283611728565b91506113f1826119e4565b604082019050919050565b6000611409603483611728565b915061141482611a33565b604082019050919050565b600061142c601d83611728565b915061143782611a82565b602082019050919050565b600061144f602683611728565b915061145a82611aab565b604082019050919050565b6000611472602583611728565b915061147d82611afa565b604082019050919050565b6000611495602483611728565b91506114a082611b49565b604082019050919050565b60006114b8603883611728565b91506114c382611b98565b604082019050919050565b60006114db602583611728565b91506114e682611be7565b604082019050919050565b6114fa8161185b565b82525050565b61150981611865565b82525050565b6000602082019050818103600083015261152981846112ed565b905092915050565b6000602082019050611546600083018461134b565b92915050565b60006020820190508181036000830152611566818461135a565b905092915050565b6000602082019050818103600083015261158781611393565b9050919050565b600060208201905081810360008301526115a7816113b6565b9050919050565b600060208201905081810360008301526115c7816113d9565b9050919050565b600060208201905081810360008301526115e7816113fc565b9050919050565b600060208201905081810360008301526116078161141f565b9050919050565b6000602082019050818103600083015261162781611442565b9050919050565b6000602082019050818103600083015261164781611465565b9050919050565b6000602082019050818103600083015261166781611488565b9050919050565b60006020820190508181036000830152611687816114ab565b9050919050565b600060208201905081810360008301526116a7816114ce565b9050919050565b60006020820190506116c360008301846114f1565b92915050565b60006020820190506116de6000830184611500565b92915050565b6000819050602082019050919050565b600081519050919050565b600081519050919050565b6000602082019050919050565b600082825260208201905092915050565b600082825260208201905092915050565b60006117448261185b565b915061174f8361185b565b9250827fffffffffffffffffffffffffffffffffffffffffffffffffffffffffffffffff03821115611784576117836118d7565b5b828201905092915050565b600061179a8261185b565b91506117a58361185b565b9250817fffffffffffffffffffffffffffffffffffffffffffffffffffffffffffffffff04831182151516156117de576117dd6118d7565b5b828202905092915050565b60006117f48261185b565b91506117ff8361185b565b925082821015611812576118116118d7565b5b828203905092915050565b60006118288261183b565b9050919050565b60008115159050919050565b600073ffffffffffffffffffffffffffffffffffffffff82169050919050565b6000819050919050565b600060ff82169050919050565b60005b83811015611890578082015181840152602081019050611875565b8381111561189f576000848401525b50505050565b600060028204905060018216806118bd57607f821691505b602082108114156118d1576118d0611906565b5b50919050565b7f4e487b7100000000000000000000000000000000000000000000000000000000600052601160045260246000fd5b7f4e487b7100000000000000000000000000000000000000000000000000000000600052602260045260246000fd5b6000601f19601f8301169050919050565b7f45524332303a207472616e7366657220746f20746865207a65726f206164647260008201527f6573730000000000000000000000000000000000000000000000000000000000602082015250565b7f5061726120696e696369617220756d6120666f7263612c20766f63652070726560008201527f6369736120646520616f206d656e6f7320352046437300000000000000000000602082015250565b7f45524332303a20617070726f766520746f20746865207a65726f20616464726560008201527f7373000000000000000000000000000000000000000000000000000000000000602082015250565b7f5061726120637269617220756d6120666f7263612c20766f636520707265636960008201527f736120646520616f206d656e6f73203520464373000000000000000000000000602082015250565b7f45524332303a20696e73756666696369656e7420616c6c6f77616e6365000000600082015250565b7f45524332303a207472616e7366657220616d6f756e742065786365656473206260008201527f616c616e63650000000000000000000000000000000000000000000000000000602082015250565b7f45524332303a207472616e736665722066726f6d20746865207a65726f20616460008201527f6472657373000000000000000000000000000000000000000000000000000000602082015250565b7f45524332303a20617070726f76652066726f6d20746865207a65726f2061646460008201527f7265737300000000000000000000000000000000000000000000000000000000602082015250565b7f4f20736171756520696e696369616c20736f2065206c6962657261646f20706160008201527f726120636f6e74617320636f6d20302064652073616c646f0000000000000000602082015250565b7f45524332303a2064656372656173656420616c6c6f77616e63652062656c6f7760008201527f207a65726f000000000000000000000000000000000000000000000000000000602082015250565b611c3f8161181d565b8114611c4a57600080fd5b50565b611c568161185b565b8114611c6157600080fd5b5056fea264697066735822122032738ee4498978f633daa141424ceddb549ac6b63fa81d580d583b43f419186564736f6c63430008040033",
  "linkReferences": {},
  "deployedLinkReferences": {}
}